:4000000000800020110000003D0300003D03000008B5044B1A6803F53F5302331A6000F095F900BFFA46004010B5054C237833B9044B13B10448AFF300800123237010BD69
:400040009081FF1F00000000682A0000084B10B51BB108480849AFF300800848036803B910BD074B002BFBD0BDE81040184700BF00000000682A00009481FF1F0881FF1F0D
:400080000000000008B5012000F048FD012807D1114B1968114B03EB8111402200F05CFD0D4A1368C3F101031360002002F0F6F802F0C8F8C0B20A4B1870FF2801D1FF22B0
:4000C0001A70032000F02AFD012804D103200449012200F041FD08BDAC81FF1FDC81FF1FD881FF1F08B5022000F018FD012809D1124B5B6802330220114901EB83114022E1
:4001000000F02AFD0D4A5368C3F101035360012002F0C4F802F096F8C0B20A4B1870FF2801D1FF221A70042000F0F8FC012804D104200449012200F00FFD08BDAC81FF1F43
:40014000DC81FF1FDC82FF1F2DE9F04182B062B60020012100F094FC00F0CAFC0028FBD0052000F043FD714800F056FB704802F0A9F901F0D9FC01F0E5FC02F051F902F02B
:400180005DF902F07BF8002002F088F801F0F6FF012001464FF4804241F6FF7300F04AFB064602F081FB054602F07EFB0746284640213A46062302F091FB384640212A46BF
:4001C000062302F08BFB5B4C284645F6A031A2B202F098FB04F14002384645F6A03192B202F090FB3046294602F02EFB3046012102F0D0FA012001464FF4804241F6FF7378
:4002000002F026F9054602F04FFB074602F04CFB8046384640214246062302F05FFB404640213A46062302F059FB04F18002384645F6A23192B202F065FB04F1C002404652
:4002400045F6A23192B202F05DFB2846394602F0FBFA2846012102F09DFA052000F05EFC20B1052001A9012200F0D6FC9DF80430012B0AD12846012102F08CFA3046012191
:4002800002F088FA02238DF804309DF80430F3B9284602F09BFA304602F098FA002711E004EB470203EB8212002022498854013300E000233F2BF3DD013400E00024012C78
:4002C000F7DD0137012FF9DD03238DF804309DF80430032B12D1012000F020FC012803D11549402200F038FC022000F017FC012804D102201049402200F02EFC00F0FEFB22
:400300000028AAD000F0F4FB0028A6D0012000F06DFC022000F06AFC032000F067FC042000F064FC052000F061FC96E785000000E5000000DC81FF1F5C82FF1F08B502F043
:4003400053FB03680C2B00D1FEE7FEE708B5104E104D16E029686B68AC68002204E051F8040B43F8040B0432A242F8D1E868002203E0002143F8041B04328242F9D11035A8
:40038000013E002EE6D102F035FBFFF7DDFEFEE701000000982B000008B5134A134B1A60134A136843F40073136000230AE0032B03D8104A52F8231000E00F490F4A42F8DE
:4003C000231001332F2BF2D90D4B1A780D4B1A700A4A0D4B1A6000F06FF902F0C1F900220A4B1A6008BD00BF0004FA050CED00E014ED00E0000000003D0300000080FF1F6B
:40040000BC7600400481FF1F08ED00E00081FF1FFEE700BFF0B40022174611E050F82760F3B226F0FF0608E001EB420511F812406D78A5550132013BDBB2002BF4D1013773
:40044000182FEBD9F0BC704708B50A46002102F002FB08BDF8B51B4B1B78DBB21A4E3478E4B21A4F3D78EDB203F00701184A11701B090132137044F00303337045F00303C2
:400480003B700322134B1A704023134A137002321370063213700232137010220F4B1A7020230F490B7005310B7003310B700D4B1A700A2002F036FA3D70347044220A4B52
:4004C0001A70F8BDCF010049F8460040F94600406E5800403D51004001590040205B0040235B0040585B00407658004008B502F0A7FA08BD38B50024344B1C8050220233D7
:400500001A70102202331A80182331490B7002310A80304A137040F28F1102321180023213702D482D490422FFF7E0FF06222C4B1A705222A3F580731A702A4B1B78DBB2CB
:40054000294A13704FF4E162284B1A8041F25122023B1A8019250CE0254B1B7803F0010343EA440404F003044FF4F07002F010FA013D0DB1032CEFD115B90320FFF748FF29
:400580001C4A4FF4807313800723137000231A490B704820023108701370053213700222164B1A7004220A331A70154A137843F00F031370013A137843F001031370013AA5
:4005C000137843F08003137038BD00BF80400040864000408A4000400041004084010048004300400F010049A146004022420040254200400440004006400040014000404C
:40060000A2430040012807D8044B53F820201844017A13780B431370704700BF6C2A0000012808D8044B53F820201844017A137823EA0103137070476C2A0000012817D836
:4006400010B44000C0B20B4B03EB8002D1681A18147F0A7822430A700130C0B203EB8002D2681844017F13780B4313705DF8044B704700BF6C2A0000012819D810B440008C
:40068000C0B20C4B03EB8002D1681A18147F0A7822EA04020A700130C0B203EB8002D2681844017F137823EA010313705DF8044B704700BF6C2A000038B572B6334A1378E0
:4006C00043F00403137000240AE0314963001A1952000A44106A918CFFF7B6FE0134E4B2062CF2D94FF090402A49FFF793FE0A25294B1D7029480421FFF7A6FE284829492B
:400700000422FFF7F3FE284A137843F0020313701032137843F002031370244C237843F040032370A2F58632513A137843F0100313701F481F490822FFF7D8FE1E481F4997
:400740002A46FFF7D3FE1E481E490822FFF7CEFE1D481E490822FFF7C9FE1D481D490822FFF7C4FE1C4A137843F0080313701B4D61232B70FFF7BEFE81232B70FFF76AFEA1
:40078000174821460E22FFF7B1FE38BDE84600406C2A0000640000488358004000760040087600408801004803500140A04300400251004058010048F05100406001004884
:4007C000125100406C0100482251004074010048325100407C0100482243004000480040B0430040014B1B681864704708ED00E04001C0B2014B1870704700BF00E400E0B1
:400800000122014B1A60704700E100E00122014B1A60704780E100E010B50446FFF7F6FF2046FFF7DFFF0720FFF7E2FFFFF7E8FF10BD00BFF0B583B086460F4616461D4623
:400840000A4C0023237000930193184671463A4602F006F8207831462A4601F0DBFF2078022101F0C5FF207803B0F0BD0C81FF1FF8B502F095F80546444A137843F001039C
:4008800013701032137843F0010313700127404B1F700226943B1E7002F5E2521B32137803F07F031370002002F03CF8394C237803F0F9032370384A137803F0DF0313701F
:4008C00023783B432370384602F02CF8282002F029F8324B1A7802F07F021A701A7802F0BF021A70237833432370304602F01AF8237843F0040323700023294A13700132B0
:400900001370284602F050F81720072102F028F81720244902F010F81820072102F020F81820214902F008F80420072102F018F804201E4902F000F80520072102F010F875
:4009400005201B4901F0F8FF0620072102F008F80620184901F0F0FF0720014602F000F80720154901F0E8FF0820072101F0F8FF0820124901F0E0FF0C20072101F0F0FFEB
:400980000C200F4901F0D8FFF8BD00BFA54300409D6000409443004012600040F851004084600040A11100005D0F000089100000B9100000ED10000029110000651100006F
:4009C000A911000008B5224B18700023214A1370214A1370214A1370214A1370214A1370214A1370214A1370214B4FF400021A604FF080721A6010221A6020221A60402246
:400A00001A6080221A604FF480721A6011B1012906D00BE0174A137803F0FE0313700AE0144A137843F00103137004E0114A137843F00103137003220F4B1A708022203B4A
:400A40001A70012001F0A4FF04220C4B1A7008BDF482FF1FFA82FF1FF882FF1FF982FF1FF582FF1FE082FF1FF782FF1F7083FF1F00E100E00960004028600040126000406B
:400A800038B505460C46064B1B7823B9FFF7F0FE0122034B1A7028462146FFF793FF38BDB481FF1F00230A4A13700A4A13700A4A13700A4A13700A4A13700A4A13700A4AE7
:400AC00013700322094B1A708022203B1A707047FA82FF1FF882FF1FF982FF1FF582FF1FE082FF1FF782FF1F7083FF1F28600040014B1878704700BFF982FF1F064B1B7813
:400B000013F0FF0F05D0044B1878C0B200221A7070470020704700BFF882FF1F00EB40008000024B18444078704700BF0483FF1F431EDBB2072B0BD8064B00011A18185CCB
:400B400000F00F00537843EA0020023880B2704700207047FC5F0040431EDBB2072B3BD8F0B4074600EB40039B001C4C2344DB889BB2C3F500739A4207D900EB40039B00AD
:400B80002344DA88C2F5007292B200EB40039B00124C2344DB7843EA1223114D04012E192B55D3B2737039B909E0CE5C3D010D4C665501339BB200E000239342F5D343006F
:400BC00003449B00054A134400225A705A79D2B20001054B1A54F0BC704700BF0483FF1FFC5F004078600040FE5F0040431EDBB2072B0BD8430003449B00054A1344002264
:400C00005A705A79D2B20001024B1A54704700BF0483FF1FFE5F004070B5D9B1054614460E46C8B1082819D8FFF782FFA04203D22846FFF77DFF0446002305E02901094A00
:400C4000525CF25401339BB2A342F7D32846FFF7CDFF04E0002402E0002400E00024204670BD00BF786000401C4B19781C4A13880B449BB2138000230EE01A4A51680978CD
:400C8000C9B21948C1545168013151600133DBB21188013989B21180124A128892B20AB1072BEAD90D4A1278D2B2082A00D05BB10E490A7882F080020A700F210C4A11709C
:400CC00002210C4A117004E0022209490A7009490A70094A1370014A137070477083FF1F7683FF1FE882FF1F00600040F682FF1FE182FF1FFA82FF1F7183FF1F0222074B76
:400D00001A708022064B1A700F22064B1A700023054A1370054A137001207047FA82FF1FF682FF1FE182FF1F7083FF1F7183FF1F08B5FFF799FF08BD10B4184B197801F074
:400D40000F010239C9B2164A13880B449BB21380002010E0134B5C68134A125CD2B222705A6801325A600130C0B20139C9B21A88013A92B21A800B4B1B889BB20BB1002983
:400D8000E8D10A4B19700A4A137883F0800313700B22084B1A705DF8044B7047296000407683FF1FE882FF1F006000407183FF1FF682FF1FE182FF1F0623064A1370064A62
:400DC00013708022054B1A700022054B1A700120704700BFFA82FF1FE182FF1FF682FF1F7183FF1F064B9B6843B1054B9A6810709A6804490988518000229A60704700BF41
:400E0000E882FF1F7683FF1F08B5134B1A78D2B21A701B78DBB213F0800F02D00F4A137008BD0220FFF7DEFF0D4B1B7803F06003202B05D0402B06D043B900F053FC06E07B
:400E400001F0B6FD03E000F0ADFD00E0002010B90322024B1A7008BD28600040E182FF1F0060004008B5084B1978084A13880B449BB213800022064B1A700120FFF7B2FF5C
:400E80000322044B1A7008BD7083FF1F7683FF1FFA82FF1FE182FF1F08B50B4B1B78DBB2042B06D0062B07D0022B0BD1FFF7DAFF08BDFFF741FF08BD0320FFF793FF032284
:400EC000024B1A7008BD00BFFA82FF1FE182FF1F08B50022044B1A700120FFF783FF0322024B1A7008BD00BFFA82FF1FE182FF1F08B50B4B1B7813F0FF0F07D0084A137825
:400F000043F0800307490B70002313700022064B1A700120FFF766FF0322044B1A7008BDE082FF1F08600040FA82FF1FE182FF1F08B5094B1B78DBB2042B06D0062B07D0CD
:400F4000022B07D1FFF7F4FE08BDFFF7C1FF08BDFFF7CEFF08BD00BFFA82FF1F08B5284B1B78DBB213F0100F48D013F0800F0CD003F00F03012B16D1FFF746FF214B1B7819
:400F800013F0800F11D1012312E013F0400F03D0FFF7CEFF01230BE013F0200F07D0FFF77BFF012304E0002302E0002300E0002323B3134B1B7813F0800F1FD1124B1B78CB
:400FC000124A12781343124A13701278D2B29A4214D10C4B1B78DBB2094A127812F0800F07D1084B1B78DBB2054A1370137803F00F03044A1278D2B29342EAD108BD00BF05
:4010000028600040E182FF1FF682FF1F7183FF1F296000400022064B1A80064B9B682BB1044A916800230B7092685380704700BF7683FF1FE882FF1F08B50F4B1B889BB2EB
:4010400013B9FFF75BFE15E002220C4B1A7000220B4B1A70FFF7DEFF0A4AD179937943EA0123054A128892B29A4201D9024A1380FFF7FAFD012008BDE882FF1FFA82FF1FD4
:40108000F682FF1F006000400122094B1A700F3B9B7C084B1B7B03F00303934204D0054AD37B83F08003D3730122024B5A7370470B6000400483FF1F02220A4B1A700F3BA3
:4010C00093F82230084B1B7E03F00303012B04D0054AD37E83F08003D3760122024B5A76704700BF0B6000400483FF1F04220C4B1A700F3B93F832300A4B93F8243003F0E4
:401100000303012B06D0074A92F8273083F0800382F827300122034B83F82520704700BF0B6000400483FF1F08220C4B1A700F3B93F842300A4B93F8303003F00303012B00
:4011400006D0074A92F8333083F0800382F833300122034B83F83120704700BF0B6000400483FF1F10220C4B1A700F3B93F852300A4B93F83C3003F00303012B06D0074A83
:4011800092F83F3083F0800382F83F300122034B83F83D20704700BF0B6000400483FF1F08B5FFF77FFC08BD08B501F099F908BD10B401223DE0114613010C242148C45430
:4011C00002EB42039B00204803445B7913F0FF0F12D002EB42039B0003441B7913F0800F04D01001194B03449C700AE01001174B03440820987004E01001144B03448020C7
:4012000098704B000B449B000F480344DC88E4B208010C4901448C71D888C0F30720C871D888C0B20871DB88C3F307234B710132D2B2082ABFD9FF22054B1A705DF8044B5C
:40124000704700BF706000400483FF1FFC5F00400A600040074B1B78074A02EBC30253681A7C824203D903EBC003586970470020704700BFF482FF1FB82A0000F8B5404BB8
:401280001B7813F0FF0F79D03D4B18780138C0B2FFF7E0FF047AC2683A4B1878C0B200236AE01178814264D13749095CC9B25578A9425ED1917801F07F01D67806F003067E
:4012C000DFF8C8E04D000D44AD000EEB05074FF0000C87F803C092F802C087F804C092F803C00EF805C095883D8192F90250002D0DDA012E01D1072700E00D274D000D443E
:40130000AD00224E35446F7101266E700CE0012E01D1052700E009274D000D44AD001B4E35446F7100266E70DFF868E00F010EEB07060125B57001FA05F529448900134D2D
:4013400029440D89C5F307250EF807500D89EDB27570CE88F6B20E4D3D44AE71CE88C6F30726EE71CE88F6B22E71C988C1F30721697108320133DBB2A34292D3F8BD00BF1E
:40138000F982FF1FF582FF1FE482FF1F0483FF1F70600040FC5F0040034B1A78034B03EBC2035868704700BFF482FF1FB82A000008B5074B18780138C0B2FFF74BFF28B13B
:4013C0004268127900EBC203586908BD002008BDF982FF1FF8B500220EE0654E53009D18AD00741900217155A170E1702181A172617061710132D2B2082AEED940B90AE01E
:4014000000225C49CA545C49CA540133DBB200E00023002BF4D0594B1B7813F0FF0F00F0A580564B18780138C0B2FFF713FF4368DB7913F0400F05D0514A137843F001038D
:40144000137004E04E4A137803F0FE031370057A012461E0C16800235AE08A7802F07F02944252D1264604EB44029200404F3A44128992B28F88BA4206D204EB44029200C1
:40148000DFF8ECE0724417810A783A4FBA5CD2B24F78BA4239D191F802C0354F72003244920007EB020E8EF804C091F803E007F802E0CA7802F0030291F90270002F11DA98
:4014C000012A02D14FF0070C01E04FF00D0CDFF8A0E072009719BF00774487F805C001227A7012E0012A02D14FF0050C01E04FF0090C1F4F4FEA460E0EEB060292003A449E
:4015000082F805C016460022727008310133DBB2AB42A2D30134E4B2082C9BD9C06800220CE0837803F07F0310F8084B03EB43039B0014490B449C700132D2B2AA42F0D34F
:40154000FFF736FF104B1860002001220AE0084C5300991889002144C8800B89184480B20132D2B2082AF2D9FFF722FEF8BD00BF0483FF1FE482FF1F7483FF1FF982FF1F7B
:40158000F782FF1F0C83FF1F0083FF1F08B5154B1A7902F07F02531EDBB2072B20D8530013449B0010490B44997841F0010199700021D970597841F0020159701B7913F0F2
:4015C000800F05D01201094B13448D229A7004E01201064B134489229A70FFF7EDFB08BD002008BD006000400483FF1FFC5F0040264B1B7903F07F035A1ED2B2072A43D892
:4016000010B55A001A44920021490A44917801F0FE0191700021D17019017F241D484454517801F0FD015170127912F0800F14D003EB4302920016490A445278D2B2012A69
:4016400005D11B0102461A440C23937019E01B01104A1A440D23937013E003EB430292000B490A445278D2B2012A05D11B01094A1A440823937004E01B01064A1A44092322
:401680009370FFF799FB10BD00207047006000400483FF1FFC5F004010B50E4B1C79E4B20D4B18780138C0B2FFF7D4FD43681B799C4201D9012C0AD8084A135DDBB20849D0
:4016C0000B55044B9B78DBB21355012010BD002010BD00BF00600040F982FF1FE482FF1F7483FF1F10B5994B1B78DBB20021984A118013F0800F79D0944A5278D2B20A2A2F
:4017000000F21C81DFE812F036001A011A011A011A011A010B001A015F001A0167008B4BDB78DBB2012B09D1FFF736FE4268884B5A6012221A80FFF77FFC10BD834BDB7843
:40174000DBB2022B13D1814B9878FFF783FD002800F0F68042687E4B5A605A68D1785A68927842EA01221A80FFF766FC10BD01F01FF910BD13F0030317D0022B40F0E28054
:4017800073490B80714B1B7903F07F0303EB43039B00704A13449A78D2B26F4B1A7000225A704B60FFF748FC10BD694902230B806A4B1A78D2B2684B1A7000225A704B60C4
:4017C000FFF73AFC10BD624B01221A80644A5A60FFF732FC10BD5E4A012313805B4B1B7960490B445360FFF727FC10BD574A5278013A0A2A00F2A880DFE802F046A673A651
:4018000006A6A6A60EA62B00504B9B78DBB2564A1370FFF7D1FA10BD4C4B9B7803F0FF041BB1601EC0B2FFF715FD04B110B9002C40F0A4804A4B1B78DBB29C4206D0484B87
:401840001C700120494B1870FFF7C4FDFFF7B4FA10BDFFF721FF002800F092803B4A1379DBB21279D2B242490A70424AD25C3D49C95CD3B28B4204D001223C4B1A70FFF7D0
:40188000FDFCFFF799FA10BD03F00303012B17D04BB1022B76D12D4B9B7813F0FF0F73D1FFF7A6FE10BD294B9B78DBB2012B6DD12A4A137803F0FD031370FFF77DFA10BDE9
:4018C000224B1B7913F0FF0F62D1204B98781B79DBB22949CA5C22EA0002CA54FFF76CFA10BD03F00303012B17D04BB1022B51D1164B9B7813F0FF0F4ED1FFF747FE10BD17
:40190000124B9B78DBB2012B48D1144A137843F002031370FFF750FA10BD0C4B1B7913F0FF0F3DD1094B98781B79DBB21249CA5C22EA0002CA54FFF73FFA10BD002010BD8F
:40194000002010BD002010BD002010BD00600040E882FF1F0483FF1FB881FF1FF782FF1FF982FF1FE482FF1FE082FF1FF882FF1FF582FF1F7483FF1FFC82FF1F002010BD7D
:40198000002010BD002010BD002010BD002010BD002010BD002010BD002010BD002010BD002010BD044B1B7813F0800F01D0024B5B780020704700BF0060004008B50A2848
:4019C0000FD00C2802D0082806D102E04FF4805209E04FF4807206E0002000F0A1FF002201E04FF480620021094B198042F2107303FB02F303F6C413064A82FB0302DB17DC
:401A0000C3EBE223044A1360044B198008BD00BF7883FF1FAD8BDB687C83FF1F7A83FF1F38B500F0BDFF05461E4A137843F0010313701032137843F001031370193A137804
:401A400043F0020313701032137843F00203137002F5AA521132137843F0030313700424114B1C70013B1A7842F040021A701A7802F0FC021A70C822053B1A700222A3F54E
:401A800097530C3B1A70094A137843F0080313700A2000F047FF064B1C60284600F084FF38BD00BFAB43004006590040275B004080E200E010B504460A280DD00C2802D015
:401AC000082804D101E0C42207E0442205E0002000F026FFC42200E08422034B1A702046FFF76CFF10BD00BF0259004008B5102000F0FEFC0220072100F032FF02200749CD
:401B000000F01AFF064A137843F0060313700820FFF7D0FF0022034B1A8008BD551B0000015900408083FF1F08B5054B1B7823B9FFF7DCFF0122024B1A70FFF771FF08BDA9
:401B4000BC81FF1F024A137843F001031370704700590040704700BF38B59DF81040651EEDB2032D4AD80138092826D8DFE800F00525250525250D15251D0F2B02D92148CE
:401B800000781BE02048007818E00F2B02D91F48007813E01E48007810E00F2B02D91D4800780BE01C48007808E00F2B02D91B48007803E01A48007800E0002040B201EBF9
:401BC000401101FB02F2D20B91B20D2B0BD8C3F10E0192B20A4191B2124A02EB8402013302F8023C05E00F4B03EB84030F2203F8022C013C0B4B23F8241038BD002000F0A4
:401C00008FFE38BD180100491C010049190100491D0100491A0100491E0100491B0100491F010049C081FF1FF8B5074600F0B8FE06460D4D2B7843F003032B700B4C2378E8
:401C400043F0030323700A4B1F70032000F06AFE2B7803F0FC032B70237803F0FC032370304600F0A1FEF8BDF8460040F946004092580040F8B504460022C04B1A7401282D
:401C80005BD13822BE4B1A70042202331A70062201331A70002501331D7001331D700F2201331A7002331D7001331D7001331D7001260A331E70142203F527631A70052706
:401CC00001331F70162201331A7001331D70442203331A70482201331A7001331E7002331E70112201331A70192201331A70972201331A705220FFF797FF5822A14B1A7048
:401D000001331D7005331F70022201331A7001331D7001331D70284600F004FC33229A4B1A602420314600F021FC9520314600F0A1FC1D20954900F0FFFD022C5DD1382267
:401D40008F4B1A70042202331A70062201331A70002501331D7001331D703F2201331A7002331D7001331D7001331D7001260A331E70502203F527631A70272201331A70B3
:401D80002C2201331A7001331D70552203331A705A2201331A70052701331F7002331E70112201331A70192201331A70972201331A704420FFF738FF5822724B1A7001334C
:401DC0001D7005331F70022201331A7001331D7001331D70284600F0A5FB4FF47A426A4B1A600820314600F0C1FB2520314600F041FC1D20664900F09FFD032C5DD138229C
:401E00005F4B1A70042202331A70062201331A70002501331D7001331D703F2201331A7002331D7001331D7001331D7001260A331E70502203F527631A70272201331A7022
:401E40002C2201331A7001331D70552203331A705A2201331A70052701331F7002331E70112201331A70192201331A70972201331A704420FFF7D8FE5822424B1A7001331C
:401E80001D7005331F70022201331A7001331D7001331D70284600F045FB4FF47A423A4B1A600820314600F061FB2520314600F0E1FB1D20374900F03FFD042C5DD13822BA
:401EC0002F4B1A70042202331A70062201331A70002401331C7001331C703F2201331A7002331C7001331C7001331C7001250A331D70502203F527631A70272201331A709A
:401F00002C2201331A7001331C70552203331A705A2201331A70052601331E7002331D70112201331A70192201331A70972201331A704420FFF778FE5822124B1A700133EF
:401F40001C7005331E70022201331A7001331C7001331C70204600F0E5FA4FF47A420A4B1A600820294600F001FB2520294600F081FB1D20084900F0DFFCF8BDC081FF1F9A
:401F8000004E0040945800408483FF1F6D2200007122000075220000792200002DE9F04182B0394D4FF0010885F80080374E00247474102000F0C8FA102000F049FB1D2096
:401FC000072100F0CDFC0427314B1F7001331C7007331C702F4A137843F0180313702E4B1C7003F2F5231C7001331C700A22A3F209331A7001331C7002331C70122205339D
:402000001A70132201331A7004331C701422A3F68C231A70CDF80080022048F66B514FF400420823FFF798FD02230093204649F2DA014FF400421023FFF78EFD0323009396
:40204000204649F2DA014FF400421023FFF784FD0097204649F2DA014FF400421023FFF77BFD2B7806EB830313F8022C0B4B1A702B78013B36F82320094B1A802878FFF775
:40208000F9FD02B0BDE8F0810D81FF1FC081FF1F96580040075B0040935800400E4E00400C4E004070B500F07BFC06462A4B1B782A4B1A7842F001021A701A7842F01002AA
:4020C0001A7010331A7842F001021A701A7842F010021A70224D2B7843F002032B70214C237843F0020323701F4A137843F003031370032000F016FC2B7803F0FD032B70A4
:40210000237803F0FD032370184A137843F0060313707A22164B1A70164A137843F0010313701032137843F0010313700F3A137843F0010313701032137843F0010313700A
:402140004FF000530C4A1360A2F5C0721360304600F02AFC70BD00BF0D81FF1FAA430040F8460040F9460040915800407758004082580040A143004080E200E008B5084BB2
:402180009B7C4BB9064BDB7C13F0FF0F01D1FFF705FF0122024B9A74FFF784FF08BD00BFC081FF1F024A137843F0010313707047004E0040024A137803F0FE0313707047CA
:4021C000004E0040094B1B7C13F0FF0F03D0074B5B7CDBB203E0064B1B7803F00103012B01D00028EED01846704700BFC081FF1F014E00400E4B1B7803F00303012B03D87D
:402200000C4B188880B209E00A4A12780A49087842EA0020032B01D1084B1B78084B1B7C13F0FF0F02D00022054B5A7400B27047144E0040104E0040114E0040124E0040B4
:40224000C081FF1F10B5084A137843F004031370FFF7A8FF0020FFF7B5FFFFF7CBFF0446FFF7A8FF204610BD014E0040704700BF704700BF704700BF704700BF10B500240F
:4022800004E02046FEF7F8F90134E4B2012CF8D9FF22014B1A7010BD0E81FF1F10B50446FFF7ECFF2046FEF7C9F9014B1C7010BD0E81FF1F08B50A280FD00C2802D0082851
:4022C00006D102E04FF4805209E04FF4807206E0002000F025FB002201E04FF480620021094B198042F2107303FB02F303F6C413064A82FB0302DB17C3EBE223044A1360F4
:40230000044B198008BD00BF9483FF1FAD8BDB688C83FF1F9083FF1F10B500F041FB04461E4A137843F0020313701032137843F002031370193A137843F0040313701032D5
:40234000137843F00403137002F5AA521932137843F0030313700422114B1A70013B1A7842F040021A701A7802F0FC021A70C822053B1A700222A3F59753123B1A70094A28
:40238000137843F0080313700A2000F0CBFA0822054B1A60204600F007FB10BDAB4300400E5900402F5B004080E200E010B504460A280DD00C2802D0082804D101E0C42208
:4023C00007E0442205E0002000F0AAFAC42200E08422034B1A702046FFF76CFF10BD00BF0A59004008B5102000F0B0F90320072100F0B6FA0320074900F09EFA064A137876
:4024000043F0060313700820FFF7D0FF0022034B1A8008BD4D240000095900409283FF1F08B5054B1B7823B9FFF7DCFF0122024B1A70FFF771FF08BDD481FF1F024A13781F
:4024400043F001031370704708590040704700BFF0B583B086460F4616461D460B4C01232370002200920192184671463A4600F0F7F9207831462A4600F0CCF92078022163
:4024800000F0B6F9207803B0F0BD00BF0F81FF1F014B1B685864704708ED00E04001C0B2014B1870704700BF01E400E00222014B1A60704700E100E00222014B1A6070473C
:4024C00080E100E010B50446FFF7F6FF2046FFF7DFFF0720FFF7E2FFFFF7E8FF10BD00BF024B1878C0F38010704700BF8F450040034B1A7800F0F80010431870704700BF3D
:402500008640004010B5002404E02046FEF788F80134E4B2012CF8D9FF22014B1A7010BD1081FF1F10B50446FFF7ECFF2046FEF769F8014B1C7010BD1081FF1F014B1888C5
:4025400080B2704780400040034B1A7800F0F80010431870704700BF82400040024B187800F00700704700BF8240004070B505460E46FFF7F3FF0446FFF7E0FF854256D053
:402580002B4B1B7803F0010294B900B185B938B9284B1D80284A137803F0BF03137070BD254A137843F040031370224B1D8070BD22B3002321490B7001240F310C70043160
:4025C0000B700C390B7803F07F030B701A4B1B7813F0080F00D08DB9194B18800721013B1970164B1B7813F0010FFAD110490B7803F0FE030B700021104B19700C4B1B788B
:4026000013F0010F0DD00E4B1D800EB1032200E001220A4B1A70094B1B7813F0010FFAD170BD044B1D8002490B7813430B7070BDA24300408040004082400040014000409C
:4026400002400040014B188880B2704700410040034B1A7800F0F80010431870704700BF02410040024B187800F00700704700BF0241004070B505460E46FFF7F3FF044623
:40268000FFF7E0FF854256D02B4B1B7803F0010294B900B185B938B9284B1D80284A137803F0BF03137070BD254A137843F040031370224B1D8070BD22B3002321490B70B3
:4026C000012413310C7004390B7008390B7803F07F030B701A4B1B7813F0080F00D08DB9194B18800721013B1970164B1B7813F0010FFAD110490B7803F0FE030B7000213A
:40270000104B19700C4B1B7813F0010F0DD00E4B1D800EB1032200E001220A4B1A70094B1B7813F0010FFAD170BD044B1D8002490B7813430B7070BDA143004000410040D0
:40274000024100400140004002400040034B1A7800F0F80010431870704700BF8A4000400B4A7F2313708021517007E0DA0002F1804202F5F042013BDBB21370002BF5D1F8
:40278000DB0003F1804303F5F04300221A7070471481FF1F172815D831B103010A495A5C42F020025A5405E0030107495A5C02F0DF025A540001044A835C43F0010383547D
:4027C00000207047012070471070004017280BD80001064BC25C02F0FE02C254C25C02F0DF02C25400207047012070471070004017280BD80001064A835C03F0F10301F030
:40280000070143EA4101815400207047012070471070004041F6FF73994201D14FF4005141F6FF739A4201D14FF40052172808D8C00000F1804000F5EC408180C2800020F3
:4028400070470120704700BF172805D8034B03EB0010417200207047012070471070004017281BD810B4C00000F1804404F5EC44D201D2B201F07F01114321709DF8042086
:402880001201D2B203F00F03134363709DF8083003F00F03A3700020E07001E0012070475DF8044B704700BF10B500F079F80A4B5B78182B0BD9084A1478013B5370E300F6
:4028C00003F1804303F5F0431B78137000E0FF2400F06AF8204610BD1481FF1F10F0800F0CD111F4704F0BD1C00000F1804000F5F04001808270C3700020704701207047AE
:402900000120704710F0800F08D1C00000F1804000F5F0408180C280002070470120704701BE704708B5034B1B7A03FB00F000F02FF808BD1C81FF1F70B504460E46074B1F
:402940001D681F2802D90020FFF7EAFF04F01F04103455F8240045F8246070BD08ED00E038B504460D46072902D90020FFF7D8FF1F2C02D90020FFF7D3FF04F01F0000F18E
:40298000604000F564406D01EDB2057038BD00BF0230800803D000BF01380046FCD17047EFF3108072B6704780F31088704700BF0B4B1B7803F00303012B02D0022B03D0A7
:4029C0000CE0074B1B7909E0054B1B7903F07F0303EB43039B00034A13449B7800207047006000400C83FF1F014B1868704700BF8C81FF1F0E4B70B51E460E4C0025E41A4D
:402A0000A410A54204D056F8253098470135F8E700F0B0F8084B094C1E46E41AA4100025A54204D056F8253098470135F8E770BD802B0000802B0000802B0000882B0000E2
:402A400010B5431E0A44914204D011F8014B03F8014FF8E710BD03460244934202D003F8011BFAE77047000000000000035B004024430040400000002D510040005B00402C
:402A80002D510040005B004008084004405100403000C0510040100000000140001000140140000800400140000A004C01400002005001402000000001000000C02A0000A3
:402AC000010000005C2B0000000000000000000001000000D82A000001000000242B000005000000FC2A0000000000000000000000000000F82A000000000000000081022B
:402B00004000000000008202400000000000830240000000000084024000000000000503400000000902350001010080190904000005000000000705810240000007058274
:402B40000240000007058302400000070584024000000705050340000A0000001201000200000008B4045180000000000001000043000000F8B500BFF8BC08BC9E467047A9
:402B80004D00000099030000F8B500BFF8BC08BC9E46704729000000A82B00000881FF1F880000000802000000000000FF01FFFFFF0000007F800000030000000000E02E6B
:402BC000C05D00001800000000366E010000000000000000000000000000000000000000000000000000000000000000702B00000000000000000000000000000000000060
:402C000000000000000000000000000000000000000000000000000000000000000000000000000000000000000000002C81FF1F00000000000000000000000000000000C9
:402C40000000000000000000000000000000000000000000000000000000000000000000000000000000000000000000000000000000000000000000000000000000000054
:402C80000000000000000000000000000000000000000000000000000000000000000000000000000000000000000000000000000000000000000000000000000000000014
:402CC00000000000000000000000000000000000000000000000000000000000000000000000000000000000000000000000000000000000000000000000000000000000D4
:402D00000000000000000000000000000000000000000000000000000000000000000000000000000000000000000000000000000000000000000000000000000000000093
:020000040003F7
:0200000480007A
:400000000145004001520040025B0040010501400307014004090140040A0140020B0140031501400217014002190140031B01400740014008410140074201400A430140F5
:400040000244014001450140074601400F4701400A4801400B490140074C0140044D0140045101407E027C4027842F84EE01E204EA01EE01B502E204EA01EE01B802BE0130
:40008000D804DF011D02EE01E804EC90EE04EA08EE02EA08EE02E804EC90EE043308360438083B203F80CCC0CE7033143520370894089720A604A748CCF0940897209F1CD4
:4000C000A604A748A920EE808310940897209F18A604A740AB0CE220EA80EE807C01DE0194011A8045089401A580A980C608D00109800B400F811240452083409701A58874
:40010000AA40AB01B401C20FC408D004EC082104251027109408A604A740AF18C8E0EA10EE4018081B409408A740AA04AB10B104B510C640E820EE201F803708A528AE4024
:40014000AF40C601CC01AB88B120B508EC0900F501AA0202100A000000000000000014004000000000000000C0000000000B0B000000000000000000000048000000000016
:40018000000003009500180100010000000000000000000000000000000000000000000000000000000000000000000000000000000000000000000000000000000000008D
:4001C00000000000000000000000000000000000000000000000000000000000000000000000000000000000000000000000000000000000000000000000000000000000FF
:4002000000000000000000000000000000000000000000000000000000000000000000000000000000000000000000000000000000000000000000000000000000000000BE
:40024000000000000000000000000000000000000000000000000000000000000000000000000000000000000000000000000000000000000000000000000000000000007E
:40028000000000000000000000000000000000000000000000000000000000000000000000000000000000000000000000000000000000000000000000000000000000003E
:0200000490006A
:0400000000004005B7
:0200000490105A
:04000000BC90ACAF55
:0200000490303A
:02000000BA68DC
:0200000490402A
:4000000000000000000000000000000000000000000000000000000000000000000000000000000000000000000000000000000000000000000000000000000000000000C0
:400040000000000000000000000000000000000000000000000000000000000000000000000000000000000000000000000000000000000000000000000000000000000080
:400080000000000000000000000000000000000000000000000000000000000000000000000000000000000000000000000000000000000000000000000000000000000040
:4000C0000000000000000000000000000000000000000000000000000000000000000000000000000000000000000000000000000000000000000000000000000000000000
:0200000490501A
:0C00000000012E16106900012E25CAD147
:00000001FF